{
  "_format": "hh-sol-artifact-1",
  "contractName": "DecentralizedEHR",
  "sourceName": "contracts/ehr.sol",
  "abi": [
    {
      "inputs": [],
      "stateMutability": "nonpayable",
      "type": "constructor"
    },
    {
      "anonymous": false,
      "inputs": [
        {
          "indexed": true,
          "internalType": "address",
          "name": "patient",
          "type": "address"
        },
        {
          "indexed": true,
          "internalType": "address",
          "name": "provider",
          "type": "address"
        }
      ],
      "name": "AccessGranted",
      "type": "event"
    },
    {
      "anonymous": false,
      "inputs": [
        {
          "indexed": true,
          "internalType": "address",
          "name": "requester",
          "type": "address"
        },
        {
          "indexed": true,
          "internalType": "address",
          "name": "patient",
          "type": "address"
        },
        {
          "indexed": false,
          "internalType": "string",
          "name": "reason",
          "type": "string"
        }
      ],
      "name": "AccessRequested",
      "type": "event"
    },
    {
      "anonymous": false,
      "inputs": [
        {
          "indexed": true,
          "internalType": "address",
          "name": "patient",
          "type": "address"
        },
        {
          "indexed": true,
          "internalType": "address",
          "name": "provider",
          "type": "address"
        }
      ],
      "name": "AccessRevoked",
      "type": "event"
    },
    {
      "anonymous": false,
      "inputs": [
        {
          "indexed": true,
          "internalType": "address",
          "name": "patient",
          "type": "address"
        },
        {
          "indexed": false,
          "internalType": "string",
          "name": "cid",
          "type": "string"
        },
        {
          "indexed": false,
          "internalType": "string",
          "name": "recordType",
          "type": "string"
        },
        {
          "indexed": false,
          "internalType": "uint256",
          "name": "timestamp",
          "type": "uint256"
        }
      ],
      "name": "RecordAdded",
      "type": "event"
    },
    {
      "anonymous": false,
      "inputs": [
        {
          "indexed": true,
          "internalType": "address",
          "name": "user",
          "type": "address"
        },
        {
          "indexed": false,
          "internalType": "string",
          "name": "role",
          "type": "string"
        }
      ],
      "name": "UserRegistered",
      "type": "event"
    },
    {
      "inputs": [
        {
          "internalType": "address",
          "name": "",
          "type": "address"
        },
        {
          "internalType": "uint256",
          "name": "",
          "type": "uint256"
        }
      ],
      "name": "accessRequests",
      "outputs": [
        {
          "internalType": "address",
          "name": "requester",
          "type": "address"
        },
        {
          "internalType": "string",
          "name": "reason",
          "type": "string"
        },
        {
          "internalType": "uint256",
          "name": "timestamp",
          "type": "uint256"
        }
      ],
      "stateMutability": "view",
      "type": "function"
    },
    {
      "inputs": [
        {
          "internalType": "string",
          "name": "_cid",
          "type": "string"
        },
        {
          "internalType": "string",
          "name": "_recordType",
          "type": "string"
        }
      ],
      "name": "addRecord",
      "outputs": [],
      "stateMutability": "nonpayable",
      "type": "function"
    },
    {
      "inputs": [],
      "name": "getAllPatients",
      "outputs": [
        {
          "internalType": "address[]",
          "name": "",
          "type": "address[]"
        }
      ],
      "stateMutability": "view",
      "type": "function"
    },
    {
      "inputs": [
        {
          "internalType": "address",
          "name": "_patient",
          "type": "address"
        }
      ],
      "name": "getRecords",
      "outputs": [
        {
          "components": [
            {
              "internalType": "string",
              "name": "cid",
              "type": "string"
            },
            {
              "internalType": "string",
              "name": "recordType",
              "type": "string"
            },
            {
              "internalType": "uint256",
              "name": "timestamp",
              "type": "uint256"
            },
            {
              "internalType": "address",
              "name": "uploadedBy",
              "type": "address"
            }
          ],
          "internalType": "struct DecentralizedEHR.Record[]",
          "name": "",
          "type": "tuple[]"
        }
      ],
      "stateMutability": "view",
      "type": "function"
    },
    {
      "inputs": [
        {
          "internalType": "address",
          "name": "_provider",
          "type": "address"
        }
      ],
      "name": "grantAccess",
      "outputs": [],
      "stateMutability": "nonpayable",
      "type": "function"
    },
    {
      "inputs": [],
      "name": "owner",
      "outputs": [
        {
          "internalType": "address",
          "name": "",
          "type": "address"
        }
      ],
      "stateMutability": "view",
      "type": "function"
    },
    {
      "inputs": [],
      "name": "registerAsDoctor",
      "outputs": [],
      "stateMutability": "nonpayable",
      "type": "function"
    },
    {
      "inputs": [],
      "name": "registerAsPatient",
      "outputs": [],
      "stateMutability": "nonpayable",
      "type": "function"
    },
    {
      "inputs": [
        {
          "internalType": "address",
          "name": "_patient",
          "type": "address"
        },
        {
          "internalType": "string",
          "name": "_reason",
          "type": "string"
        }
      ],
      "name": "requestAccess",
      "outputs": [],
      "stateMutability": "nonpayable",
      "type": "function"
    },
    {
      "inputs": [
        {
          "internalType": "address",
          "name": "_provider",
          "type": "address"
        }
      ],
      "name": "revokeAccess",
      "outputs": [],
      "stateMutability": "nonpayable",
      "type": "function"
    }
  ],
  "bytecode": "0x6080604052348015600f57600080fd5b50336000806101000a81548173ffffffffffffffffffffffffffffffffffffffff021916908373ffffffffffffffffffffffffffffffffffffffff1602179055506127928061005f6000396000f3fe608060405234801561001057600080fd5b506004361061009e5760003560e01c806385e685311161006657806385e68531146101355780638da5cb5b14610151578063a0076e841461016f578063a99ad4ee1461019f578063c9596248146101a95761009e565b80630ae5e739146100a357806318a231a9146100bf5780631e7b3011146100dd5780632f6d4a591461010f5780636ba7fe7f1461012b575b600080fd5b6100bd60048036038101906100b891906115de565b6101c5565b005b6100c76103da565b6040516100d491906116c9565b60405180910390f35b6100f760048036038101906100f29190611721565b6104f4565b6040516101069392919061180f565b60405180910390f35b61012960048036038101906101249190611982565b6105e3565b005b61013361086c565b005b61014f600480360381019061014a91906115de565b610a8f565b005b610159610dcc565b60405161016691906119de565b60405180910390f35b610189600480360381019061018491906115de565b610df0565b6040516101969190611b7e565b60405180910390f35b6101a761105b565b005b6101c360048036038101906101be9190611ba0565b61127e565b005b600360003373ffffffffffffffffffffffffffffffffffffffff1673ffffffffffffffffffffffffffffffffffffffff16815260200190815260200160002060009054906101000a900460ff16610251576040517f08c379a000000000000000000000000000000000000000000000000000000000815260040161024890611c8a565b60405180910390fd5b600460008273ffffffffffffffffffffffffffffffffffffffff1673ffffffffffffffffffffffffffffffffffffffff16815260200190815260200160002060009054906101000a900460ff166102dd576040517f08c379a00000000000000000000000000000000000000000000000000000000081526004016102d490611d1c565b60405180910390fd5b600560003373ffffffffffffffffffffffffffffffffffffffff1673ffffffffffffffffffffffffffffffffffffffff168152602001908152602001600020819080600181540180825580915050600190039060005260206000200160009091909190916101000a81548173ffffffffffffffffffffffffffffffffffffffff021916908373ffffffffffffffffffffffffffffffffffffffff1602179055508073ffffffffffffffffffffffffffffffffffffffff163373ffffffffffffffffffffffffffffffffffffffff167f9f520b3bfc56d06f7065d10b4683b3f57ac8895d5026cd176dee95ce1454cb8d60405160405180910390a350565b6060600460003373ffffffffffffffffffffffffffffffffffffffff1673ffffffffffffffffffffffffffffffffffffffff16815260200190815260200160002060009054906101000a900460ff16610468576040517f08c379a000000000000000000000000000000000000000000000000000000000815260040161045f90611dae565b60405180910390fd5b60018054806020026020016040519081016040528092919081815260200182805480156104ea57602002820191906000526020600020905b8160009054906101000a900473ffffffffffffffffffffffffffffffffffffffff1673ffffffffffffffffffffffffffffffffffffffff16815260200190600101908083116104a0575b5050505050905090565b6007602052816000526040600020818154811061051057600080fd5b9060005260206000209060030201600091509150508060000160009054906101000a900473ffffffffffffffffffffffffffffffffffffffff169080600101805461055a90611dfd565b80601f016020809104026020016040519081016040528092919081815260200182805461058690611dfd565b80156105d35780601f106105a8576101008083540402835291602001916105d3565b820191906000526020600020905b8154815290600101906020018083116105b657829003601f168201915b5050505050908060020154905083565b600460003373ffffffffffffffffffffffffffffffffffffffff1673ffffffffffffffffffffffffffffffffffffffff16815260200190815260200160002060009054906101000a900460ff1661066f576040517f08c379a000000000000000000000000000000000000000000000000000000000815260040161066690611ea0565b60405180910390fd5b600360008373ffffffffffffffffffffffffffffffffffffffff1673ffffffffffffffffffffffffffffffffffffffff16815260200190815260200160002060009054906101000a900460ff166106fb576040517f08c379a00000000000000000000000000000000000000000000000000000000081526004016106f290611f32565b60405180910390fd5b600060405180606001604052803373ffffffffffffffffffffffffffffffffffffffff168152602001838152602001428152509050600760008473ffffffffffffffffffffffffffffffffffffffff1673ffffffffffffffffffffffffffffffffffffffff16815260200190815260200160002081908060018154018082558091505060019003906000526020600020906003020160009091909190915060008201518160000160006101000a81548173ffffffffffffffffffffffffffffffffffffffff021916908373ffffffffffffffffffffffffffffffffffffffff16021790555060208201518160010190816107f591906120fe565b506040820151816002015550508273ffffffffffffffffffffffffffffffffffffffff163373ffffffffffffffffffffffffffffffffffffffff167f7345df1fefb912154845267ca137457ad1fd510d6426afd2502e66d3006022638460405161085f91906121d0565b60405180910390a3505050565b600460003373ffffffffffffffffffffffffffffffffffffffff1673ffffffffffffffffffffffffffffffffffffffff16815260200190815260200160002060009054906101000a900460ff16156108f9576040517f08c379a00000000000000000000000000000000000000000000000000000000081526004016108f09061223e565b60405180910390fd5b600360003373ffffffffffffffffffffffffffffffffffffffff1673ffffffffffffffffffffffffffffffffffffffff16815260200190815260200160002060009054906101000a900460ff1615610986576040517f08c379a000000000000000000000000000000000000000000000000000000000815260040161097d906122d0565b60405180910390fd5b6002339080600181540180825580915050600190039060005260206000200160009091909190916101000a81548173ffffffffffffffffffffffffffffffffffffffff021916908373ffffffffffffffffffffffffffffffffffffffff1602179055506001600460003373ffffffffffffffffffffffffffffffffffffffff1673ffffffffffffffffffffffffffffffffffffffff16815260200190815260200160002060006101000a81548160ff0219169083151502179055503373ffffffffffffffffffffffffffffffffffffffff167f48cac28ad4dc618e15f4c2dd5e97751182f166de97b25618318b2112aa951a2f604051610a859061233c565b60405180910390a2565b600360003373ffffffffffffffffffffffffffffffffffffffff1673ffffffffffffffffffffffffffffffffffffffff16815260200190815260200160002060009054906101000a900460ff16610b1b576040517f08c379a0000000000000000000000000000000000000000000000000000000008152600401610b12906123ce565b60405180910390fd5b600460008273ffffffffffffffffffffffffffffffffffffffff1673ffffffffffffffffffffffffffffffffffffffff16815260200190815260200160002060009054906101000a900460ff16610ba7576040517f08c379a0000000000000000000000000000000000000000000000000000000008152600401610b9e90611d1c565b60405180910390fd5b6000600560003373ffffffffffffffffffffffffffffffffffffffff1673ffffffffffffffffffffffffffffffffffffffff168152602001908152602001600020905060005b8180549050811015610dc6578273ffffffffffffffffffffffffffffffffffffffff16828281548110610c2357610c226123ee565b5b9060005260206000200160009054906101000a900473ffffffffffffffffffffffffffffffffffffffff1673ffffffffffffffffffffffffffffffffffffffff1603610db9578160018380549050610c7b919061244c565b81548110610c8c57610c8b6123ee565b5b9060005260206000200160009054906101000a900473ffffffffffffffffffffffffffffffffffffffff16828281548110610cca57610cc96123ee565b5b9060005260206000200160006101000a81548173ffffffffffffffffffffffffffffffffffffffff021916908373ffffffffffffffffffffffffffffffffffffffff16021790555081805480610d2357610d22612480565b5b6001900381819060005260206000200160006101000a81549073ffffffffffffffffffffffffffffffffffffffff021916905590558273ffffffffffffffffffffffffffffffffffffffff163373ffffffffffffffffffffffffffffffffffffffff167f825c8be24eb0df19500f63e86c29e7d0d951e73056b889b891d85e40938d9b6e60405160405180910390a35050610dc9565b8080600101915050610bed565b50505b50565b60008054906101000a900473ffffffffffffffffffffffffffffffffffffffff1681565b6060610dfc8233611484565b610e3b576040517f08c379a0000000000000000000000000000000000000000000000000000000008152600401610e32906124fb565b60405180910390fd5b600660008373ffffffffffffffffffffffffffffffffffffffff1673ffffffffffffffffffffffffffffffffffffffff168152602001908152602001600020805480602002602001604051908101604052809291908181526020016000905b828210156110505783829060005260206000209060040201604051806080016040529081600082018054610ecd90611dfd565b80601f0160208091040260200160405190810160405280929190818152602001828054610ef990611dfd565b8015610f465780601f10610f1b57610100808354040283529160200191610f46565b820191906000526020600020905b815481529060010190602001808311610f2957829003601f168201915b50505050508152602001600182018054610f5f90611dfd565b80601f0160208091040260200160405190810160405280929190818152602001828054610f8b90611dfd565b8015610fd85780601f10610fad57610100808354040283529160200191610fd8565b820191906000526020600020905b815481529060010190602001808311610fbb57829003601f168201915b50505050508152602001600282015481526020016003820160009054906101000a900473ffffffffffffffffffffffffffffffffffffffff1673ffffffffffffffffffffffffffffffffffffffff1673ffffffffffffffffffffffffffffffffffffffff168152505081526020019060010190610e9a565b505050509050919050565b600360003373ffffffffffffffffffffffffffffffffffffffff1673ffffffffffffffffffffffffffffffffffffffff16815260200190815260200160002060009054906101000a900460ff16156110e8576040517f08c379a00000000000000000000000000000000000000000000000000000000081526004016110df90612567565b60405180910390fd5b600460003373ffffffffffffffffffffffffffffffffffffffff1673ffffffffffffffffffffffffffffffffffffffff16815260200190815260200160002060009054906101000a900460ff1615611175576040517f08c379a000000000000000000000000000000000000000000000000000000000815260040161116c906125f9565b60405180910390fd5b6001339080600181540180825580915050600190039060005260206000200160009091909190916101000a81548173ffffffffffffffffffffffffffffffffffffffff021916908373ffffffffffffffffffffffffffffffffffffffff1602179055506001600360003373ffffffffffffffffffffffffffffffffffffffff1673ffffffffffffffffffffffffffffffffffffffff16815260200190815260200160002060006101000a81548160ff0219169083151502179055503373ffffffffffffffffffffffffffffffffffffffff167f48cac28ad4dc618e15f4c2dd5e97751182f166de97b25618318b2112aa951a2f60405161127490612665565b60405180910390a2565b600360003373ffffffffffffffffffffffffffffffffffffffff1673ffffffffffffffffffffffffffffffffffffffff16815260200190815260200160002060009054906101000a900460ff1661130a576040517f08c379a0000000000000000000000000000000000000000000000000000000008152600401611301906126f7565b60405180910390fd5b600060405180608001604052808481526020018381526020014281526020013373ffffffffffffffffffffffffffffffffffffffff168152509050600660003373ffffffffffffffffffffffffffffffffffffffff1673ffffffffffffffffffffffffffffffffffffffff16815260200190815260200160002081908060018154018082558091505060019003906000526020600020906004020160009091909190915060008201518160000190816113c391906120fe565b5060208201518160010190816113d991906120fe565b506040820151816002015560608201518160030160006101000a81548173ffffffffffffffffffffffffffffffffffffffff021916908373ffffffffffffffffffffffffffffffffffffffff16021790555050503373ffffffffffffffffffffffffffffffffffffffff167fabf956e712eb5b9ee34b39c298c8f13b7e3ab5ac61e12fc5edb7ea72325f2aa384844260405161147793929190612717565b60405180910390a2505050565b600080600560008573ffffffffffffffffffffffffffffffffffffffff1673ffffffffffffffffffffffffffffffffffffffff168152602001908152602001600020905060005b818054905081101561155f578373ffffffffffffffffffffffffffffffffffffffff16828281548110611501576115006123ee565b5b9060005260206000200160009054906101000a900473ffffffffffffffffffffffffffffffffffffffff1673ffffffffffffffffffffffffffffffffffffffff160361155257600192505050611566565b80806001019150506114cb565b5060009150505b92915050565b6000604051905090565b600080fd5b600080fd5b600073ffffffffffffffffffffffffffffffffffffffff82169050919050565b60006115ab82611580565b9050919050565b6115bb816115a0565b81146115c657600080fd5b50565b6000813590506115d8816115b2565b92915050565b6000602082840312156115f4576115f3611576565b5b6000611602848285016115c9565b91505092915050565b600081519050919050565b600082825260208201905092915050565b6000819050602082019050919050565b611640816115a0565b82525050565b60006116528383611637565b60208301905092915050565b6000602082019050919050565b60006116768261160b565b6116808185611616565b935061168b83611627565b8060005b838110156116bc5781516116a38882611646565b97506116ae8361165e565b92505060018101905061168f565b5085935050505092915050565b600060208201905081810360008301526116e3818461166b565b905092915050565b6000819050919050565b6116fe816116eb565b811461170957600080fd5b50565b60008135905061171b816116f5565b92915050565b6000806040838503121561173857611737611576565b5b6000611746858286016115c9565b92505060206117578582860161170c565b9150509250929050565b61176a816115a0565b82525050565b600081519050919050565b600082825260208201905092915050565b60005b838110156117aa57808201518184015260208101905061178f565b60008484015250505050565b6000601f19601f8301169050919050565b60006117d282611770565b6117dc818561177b565b93506117ec81856020860161178c565b6117f5816117b6565b840191505092915050565b611809816116eb565b82525050565b60006060820190506118246000830186611761565b818103602083015261183681856117c7565b90506118456040830184611800565b949350505050565b600080fd5b600080fd5b7f4e487b7100000000000000000000000000000000000000000000000000000000600052604160045260246000fd5b61188f826117b6565b810181811067ffffffffffffffff821117156118ae576118ad611857565b5b80604052505050565b60006118c161156c565b90506118cd8282611886565b919050565b600067ffffffffffffffff8211156118ed576118ec611857565b5b6118f6826117b6565b9050602081019050919050565b82818337600083830152505050565b6000611925611920846118d2565b6118b7565b90508281526020810184848401111561194157611940611852565b5b61194c848285611903565b509392505050565b600082601f8301126119695761196861184d565b5b8135611979848260208601611912565b91505092915050565b6000806040838503121561199957611998611576565b5b60006119a7858286016115c9565b925050602083013567ffffffffffffffff8111156119c8576119c761157b565b5b6119d485828601611954565b9150509250929050565b60006020820190506119f36000830184611761565b92915050565b600081519050919050565b600082825260208201905092915050565b6000819050602082019050919050565b600082825260208201905092915050565b6000611a4182611770565b611a4b8185611a25565b9350611a5b81856020860161178c565b611a64816117b6565b840191505092915050565b611a78816116eb565b82525050565b60006080830160008301518482036000860152611a9b8282611a36565b91505060208301518482036020860152611ab58282611a36565b9150506040830151611aca6040860182611a6f565b506060830151611add6060860182611637565b508091505092915050565b6000611af48383611a7e565b905092915050565b6000602082019050919050565b6000611b14826119f9565b611b1e8185611a04565b935083602082028501611b3085611a15565b8060005b85811015611b6c5784840389528151611b4d8582611ae8565b9450611b5883611afc565b925060208a01995050600181019050611b34565b50829750879550505050505092915050565b60006020820190508181036000830152611b988184611b09565b905092915050565b60008060408385031215611bb757611bb6611576565b5b600083013567ffffffffffffffff811115611bd557611bd461157b565b5b611be185828601611954565b925050602083013567ffffffffffffffff811115611c0257611c0161157b565b5b611c0e85828601611954565b9150509250929050565b7f4f6e6c7920726567697374657265642070617469656e74732063616e2067726160008201527f6e74206163636573730000000000000000000000000000000000000000000000602082015250565b6000611c7460298361177b565b9150611c7f82611c18565b604082019050919050565b60006020820190508181036000830152611ca381611c67565b9050919050565b7f546865207461726765742061646472657373206973206e6f742061207265676960008201527f73746572656420646f63746f7200000000000000000000000000000000000000602082015250565b6000611d06602d8361177b565b9150611d1182611caa565b604082019050919050565b60006020820190508181036000830152611d3581611cf9565b9050919050565b7f4f6e6c7920646f63746f72732063616e207669657720746865206c697374206f60008201527f662070617469656e747300000000000000000000000000000000000000000000602082015250565b6000611d98602a8361177b565b9150611da382611d3c565b604082019050919050565b60006020820190508181036000830152611dc781611d8b565b9050919050565b7f4e487b7100000000000000000000000000000000000000000000000000000000600052602260045260246000fd5b60006002820490506001821680611e1557607f821691505b602082108103611e2857611e27611dce565b5b50919050565b7f4f6e6c79207265676973746572656420646f63746f72732063616e207265717560008201527f6573742061636365737300000000000000000000000000000000000000000000602082015250565b6000611e8a602a8361177b565b9150611e9582611e2e565b604082019050919050565b60006020820190508181036000830152611eb981611e7d565b9050919050565b7f546865207461726765742061646472657373206973206e6f742061207265676960008201527f7374657265642070617469656e74000000000000000000000000000000000000602082015250565b6000611f1c602e8361177b565b9150611f2782611ec0565b604082019050919050565b60006020820190508181036000830152611f4b81611f0f565b9050919050565b60008190508160005260206000209050919050565b60006020601f8301049050919050565b600082821b905092915050565b600060088302611fb47fffffffffffffffffffffffffffffffffffffffffffffffffffffffffffffffff82611f77565b611fbe8683611f77565b95508019841693508086168417925050509392505050565b6000819050919050565b6000611ffb611ff6611ff1846116eb565b611fd6565b6116eb565b9050919050565b6000819050919050565b61201583611fe0565b61202961202182612002565b848454611f84565b825550505050565b600090565b61203e612031565b61204981848461200c565b505050565b5b8181101561206d57612062600082612036565b60018101905061204f565b5050565b601f8211156120b25761208381611f52565b61208c84611f67565b8101602085101561209b578190505b6120af6120a785611f67565b83018261204e565b50505b505050565b600082821c905092915050565b60006120d5600019846008026120b7565b1980831691505092915050565b60006120ee83836120c4565b9150826002028217905092915050565b61210782611770565b67ffffffffffffffff8111156121205761211f611857565b5b61212a8254611dfd565b612135828285612071565b600060209050601f8311600181146121685760008415612156578287015190505b61216085826120e2565b8655506121c8565b601f19841661217686611f52565b60005b8281101561219e57848901518255600182019150602085019450602081019050612179565b868310156121bb57848901516121b7601f8916826120c4565b8355505b6001600288020188555050505b505050505050565b600060208201905081810360008301526121ea81846117c7565b905092915050565b7f416c72656164792072656769737465726564206173206120646f63746f720000600082015250565b6000612228601e8361177b565b9150612233826121f2565b602082019050919050565b600060208201905081810360008301526122578161221b565b9050919050565b7f43616e6e6f74207265676973746572206173206120646f63746f72206966206160008201527f6c726561647920612070617469656e7400000000000000000000000000000000602082015250565b60006122ba60308361177b565b91506122c58261225e565b604082019050919050565b600060208201905081810360008301526122e9816122ad565b9050919050565b7f446f63746f720000000000000000000000000000000000000000000000000000600082015250565b600061232660068361177b565b9150612331826122f0565b602082019050919050565b6000602082019050818103600083015261235581612319565b9050919050565b7f4f6e6c7920726567697374657265642070617469656e74732063616e2072657660008201527f6f6b652061636365737300000000000000000000000000000000000000000000602082015250565b60006123b8602a8361177b565b91506123c38261235c565b604082019050919050565b600060208201905081810360008301526123e7816123ab565b9050919050565b7f4e487b7100000000000000000000000000000000000000000000000000000000600052603260045260246000fd5b7f4e487b7100000000000000000000000000000000000000000000000000000000600052601160045260246000fd5b6000612457826116eb565b9150612462836116eb565b925082820390508181111561247a5761247961241d565b5b92915050565b7f4e487b7100000000000000000000000000000000000000000000000000000000600052603160045260246000fd5b7f4e6f7420617574686f72697a656420746f2076696577207265636f7264730000600082015250565b60006124e5601e8361177b565b91506124f0826124af565b602082019050919050565b60006020820190508181036000830152612514816124d8565b9050919050565b7f416c7265616479207265676973746572656420617320612070617469656e7400600082015250565b6000612551601f8361177b565b915061255c8261251b565b602082019050919050565b6000602082019050818103600083015261258081612544565b9050919050565b7f43616e6e6f7420726567697374657220617320612070617469656e742069662060008201527f616c7265616479206120646f63746f7200000000000000000000000000000000602082015250565b60006125e360308361177b565b91506125ee82612587565b604082019050919050565b60006020820190508181036000830152612612816125d6565b9050919050565b7f50617469656e7400000000000000000000000000000000000000000000000000600082015250565b600061264f60078361177b565b915061265a82612619565b602082019050919050565b6000602082019050818103600083015261267e81612642565b9050919050565b7f4f6e6c7920726567697374657265642070617469656e74732063616e2061646460008201527f207265636f726473000000000000000000000000000000000000000000000000602082015250565b60006126e160288361177b565b91506126ec82612685565b604082019050919050565b60006020820190508181036000830152612710816126d4565b9050919050565b6000606082019050818103600083015261273181866117c7565b9050818103602083015261274581856117c7565b90506127546040830184611800565b94935050505056fea26469706673582212206397b6a91bca92a30fcbac0736cae2d73de31b741a632afd9e9ffee8c776a1f464736f6c634300081c0033",
  "linkReferences": {},
  "deployedLinkReferences": {}
}